{
  "_format": "hh-sol-artifact-1",
  "contractName": "GreetPortal",
  "sourceName": "contracts/GreetPortal.sol",
  "abi": [
    {
      "inputs": [],
      "stateMutability": "payable",
      "type": "constructor"
    },
    {
      "anonymous": false,
      "inputs": [
        {
          "indexed": true,
          "internalType": "address",
          "name": "from",
          "type": "address"
        },
        {
          "indexed": false,
          "internalType": "uint256",
          "name": "timestamp",
          "type": "uint256"
        },
        {
          "indexed": false,
          "internalType": "string",
          "name": "message",
          "type": "string"
        }
      ],
      "name": "NewGreet",
      "type": "event"
    },
    {
      "inputs": [],
      "name": "getAllGreetings",
      "outputs": [
        {
          "components": [
            {
              "internalType": "address",
              "name": "sender",
              "type": "address"
            },
            {
              "internalType": "string",
              "name": "message",
              "type": "string"
            },
            {
              "internalType": "uint256",
              "name": "timestamp",
              "type": "uint256"
            }
          ],
          "internalType": "struct GreetPortal.Greet[]",
          "name": "",
          "type": "tuple[]"
        }
      ],
      "stateMutability": "view",
      "type": "function"
    },
    {
      "inputs": [],
      "name": "getTotalGreetings",
      "outputs": [
        {
          "internalType": "uint256",
          "name": "",
          "type": "uint256"
        }
      ],
      "stateMutability": "view",
      "type": "function"
    },
    {
      "inputs": [
        {
          "internalType": "string",
          "name": "_message",
          "type": "string"
        }
      ],
      "name": "greet",
      "outputs": [],
      "stateMutability": "nonpayable",
      "type": "function"
    },
    {
      "inputs": [
        {
          "internalType": "address",
          "name": "",
          "type": "address"
        }
      ],
      "name": "lastGreetedAt",
      "outputs": [
        {
          "internalType": "uint256",
          "name": "",
          "type": "uint256"
        }
      ],
      "stateMutability": "view",
      "type": "function"
    }
  ],
  "bytecode": "0x60806040526200004f6040518060400160405280601981526020017f57652068617665206265656e20636f6e737472756374656421000000000000008152506200007760201b620006461760201c565b606444426200005f9190620001c4565b6200006b919062000261565b60018190555062000308565b62000117816040516024016200008e919062000184565b6040516020818303038152906040527f41304fac000000000000000000000000000000000000000000000000000000007bffffffffffffffffffffffffffffffffffffffffffffffffffffffff19166020820180517bffffffffffffffffffffffffffffffffffffffffffffffffffffffff83818316178352505050506200011a60201b60201c565b50565b60008151905060006a636f6e736f6c652e6c6f679050602083016000808483855afa5050505050565b60006200015082620001a8565b6200015c8185620001b3565b93506200016e8185602086016200022b565b6200017981620002f7565b840191505092915050565b60006020820190508181036000830152620001a0818462000143565b905092915050565b600081519050919050565b600082825260208201905092915050565b6000620001d18262000221565b9150620001de8362000221565b9250827fffffffffffffffffffffffffffffffffffffffffffffffffffffffffffffffff0382111562000216576200021562000299565b5b828201905092915050565b6000819050919050565b60005b838110156200024b5780820151818401526020810190506200022e565b838111156200025b576000848401525b50505050565b60006200026e8262000221565b91506200027b8362000221565b9250826200028e576200028d620002c8565b5b828206905092915050565b7f4e487b7100000000000000000000000000000000000000000000000000000000600052601160045260246000fd5b7f4e487b7100000000000000000000000000000000000000000000000000000000600052601260045260246000fd5b6000601f19601f8301169050919050565b61112480620003186000396000f3fe608060405234801561001057600080fd5b506004361061004c5760003560e01c80633f15aa34146100515780638490baec1461006f578063e2e4644a1461008d578063ead710c4146100bd575b600080fd5b6100596100d9565b6040516100669190610cb2565b60405180910390f35b61007761022a565b6040516100849190610db6565b60405180910390f35b6100a760048036038101906100a29190610960565b610275565b6040516100b49190610db6565b60405180910390f35b6100d760048036038101906100d29190610989565b61028d565b005b60606002805480602002602001604051908101604052809291908181526020016000905b8282101561022157838290600052602060002090600302016040518060600160405290816000820160009054906101000a900473ffffffffffffffffffffffffffffffffffffffff1673ffffffffffffffffffffffffffffffffffffffff1673ffffffffffffffffffffffffffffffffffffffff16815260200160018201805461018690610fa7565b80601f01602080910402602001604051908101604052809291908181526020018280546101b290610fa7565b80156101ff5780601f106101d4576101008083540402835291602001916101ff565b820191906000526020600020905b8154815290600101906020018083116101e257829003601f168201915b50505050508152602001600282015481525050815260200190600101906100fd565b50505050905090565b600061026d6040518060400160405280601b81526020017f5765206861766520256420746f74616c206772656574696e67732100000000008152506000546106df565b600054905090565b60036020528060005260406000206000915090505481565b42601e600360003373ffffffffffffffffffffffffffffffffffffffff1673ffffffffffffffffffffffffffffffffffffffff168152602001908152602001600020546102da9190610ed3565b1061031a576040517f08c379a000000000000000000000000000000000000000000000000000000000815260040161031190610d96565b60405180910390fd5b42600360003373ffffffffffffffffffffffffffffffffffffffff1673ffffffffffffffffffffffffffffffffffffffff1681526020019081526020016000208190555060016000808282546103709190610ed3565b925050819055506103b66040518060400160405280600f81526020017f25732068617320677265657465642100000000000000000000000000000000008152503361077b565b600260405180606001604052803373ffffffffffffffffffffffffffffffffffffffff16815260200183815260200142815250908060018154018082558091505060019003906000526020600020906003020160009091909190915060008201518160000160006101000a81548173ffffffffffffffffffffffffffffffffffffffff021916908373ffffffffffffffffffffffffffffffffffffffff1602179055506020820151816001019080519060200190610475929190610840565b50604082015181600201555050606460015442446104939190610ed3565b61049d9190610ed3565b6104a79190610fd9565b6001819055506032600154116105f3576104f66040518060400160405280600781526020017f257320776f6e21000000000000000000000000000000000000000000000000008152503361077b565b6000655af3107a4000905047811115610544576040517f08c379a000000000000000000000000000000000000000000000000000000000815260040161053b90610d76565b60405180910390fd5b60003373ffffffffffffffffffffffffffffffffffffffff168260405161056a90610c9d565b60006040518083038185875af1925050503d80600081146105a7576040519150601f19603f3d011682016040523d82523d6000602084013e6105ac565b606091505b50509050806105f0576040517f08c379a00000000000000000000000000000000000000000000000000000000081526004016105e790610d56565b60405180910390fd5b50505b3373ffffffffffffffffffffffffffffffffffffffff167fe74e6be362166704c24f3aa56c5d489c5c9dec60c4fc071359c0f6f78eef6a45428360405161063b929190610dd1565b60405180910390a250565b6106dc8160405160240161065a9190610cd4565b6040516020818303038152906040527f41304fac000000000000000000000000000000000000000000000000000000007bffffffffffffffffffffffffffffffffffffffffffffffffffffffff19166020820180517bffffffffffffffffffffffffffffffffffffffffffffffffffffffff8381831617835250505050610817565b50565b61077782826040516024016106f5929190610d26565b6040516020818303038152906040527f9710a9d0000000000000000000000000000000000000000000000000000000007bffffffffffffffffffffffffffffffffffffffffffffffffffffffff19166020820180517bffffffffffffffffffffffffffffffffffffffffffffffffffffffff8381831617835250505050610817565b5050565b6108138282604051602401610791929190610cf6565b6040516020818303038152906040527f319af333000000000000000000000000000000000000000000000000000000007bffffffffffffffffffffffffffffffffffffffffffffffffffffffff19166020820180517bffffffffffffffffffffffffffffffffffffffffffffffffffffffff8381831617835250505050610817565b5050565b60008151905060006a636f6e736f6c652e6c6f679050602083016000808483855afa5050505050565b82805461084c90610fa7565b90600052602060002090601f01602090048101928261086e57600085556108b5565b82601f1061088757805160ff19168380011785556108b5565b828001600101855582156108b5579182015b828111156108b4578251825591602001919060010190610899565b5b5090506108c291906108c6565b5090565b5b808211156108df5760008160009055506001016108c7565b5090565b60006108f66108f184610e32565b610e01565b90508281526020810184848401111561090e57600080fd5b610919848285610f65565b509392505050565b600081359050610930816110d7565b92915050565b600082601f83011261094757600080fd5b81356109578482602086016108e3565b91505092915050565b60006020828403121561097257600080fd5b600061098084828501610921565b91505092915050565b60006020828403121561099b57600080fd5b600082013567ffffffffffffffff8111156109b557600080fd5b6109c184828501610936565b91505092915050565b60006109d68383610c2f565b905092915050565b6109e781610f29565b82525050565b6109f681610f29565b82525050565b6000610a0782610e72565b610a118185610e95565b935083602082028501610a2385610e62565b8060005b85811015610a5f5784840389528151610a4085826109ca565b9450610a4b83610e88565b925060208a01995050600181019050610a27565b50829750879550505050505092915050565b6000610a7c82610e7d565b610a868185610eb1565b9350610a96818560208601610f74565b610a9f816110c6565b840191505092915050565b6000610ab582610e7d565b610abf8185610ec2565b9350610acf818560208601610f74565b610ad8816110c6565b840191505092915050565b6000610af0602983610ec2565b91507f4661696c7572656420746f207769746864726177206d6f6e65792066726f6d2060008301527f636f6e74726163742e00000000000000000000000000000000000000000000006020830152604082019050919050565b6000610b56603483610ec2565b91507f547279696e6720746f207769746864726177206d6f7265206d6f6e657920746860008301527f616e2074686520636f6e7472616374206861732e0000000000000000000000006020830152604082019050919050565b6000610bbc602983610ec2565b91507f506c6561736520736179206869206f6e6c79206f6e636520657665727920333060008301527f207365636f6e64732100000000000000000000000000000000000000000000006020830152604082019050919050565b6000610c22600083610ea6565b9150600082019050919050565b6000606083016000830151610c4760008601826109de565b5060208301518482036020860152610c5f8282610a71565b9150506040830151610c746040860182610c7f565b508091505092915050565b610c8881610f5b565b82525050565b610c9781610f5b565b82525050565b6000610ca882610c15565b9150819050919050565b60006020820190508181036000830152610ccc81846109fc565b905092915050565b60006020820190508181036000830152610cee8184610aaa565b905092915050565b60006040820190508181036000830152610d108185610aaa565b9050610d1f60208301846109ed565b9392505050565b60006040820190508181036000830152610d408185610aaa565b9050610d4f6020830184610c8e565b9392505050565b60006020820190508181036000830152610d6f81610ae3565b9050919050565b60006020820190508181036000830152610d8f81610b49565b9050919050565b60006020820190508181036000830152610daf81610baf565b9050919050565b6000602082019050610dcb6000830184610c8e565b92915050565b6000604082019050610de66000830185610c8e565b8181036020830152610df88184610aaa565b90509392505050565b6000604051905081810181811067ffffffffffffffff82111715610e2857610e27611097565b5b8060405250919050565b600067ffffffffffffffff821115610e4d57610e4c611097565b5b601f19601f8301169050602081019050919050565b6000819050602082019050919050565b600081519050919050565b600081519050919050565b6000602082019050919050565b600082825260208201905092915050565b600081905092915050565b600082825260208201905092915050565b600082825260208201905092915050565b6000610ede82610f5b565b9150610ee983610f5b565b9250827fffffffffffffffffffffffffffffffffffffffffffffffffffffffffffffffff03821115610f1e57610f1d61100a565b5b828201905092915050565b6000610f3482610f3b565b9050919050565b600073ffffffffffffffffffffffffffffffffffffffff82169050919050565b6000819050919050565b82818337600083830152505050565b60005b83811015610f92578082015181840152602081019050610f77565b83811115610fa1576000848401525b50505050565b60006002820490506001821680610fbf57607f821691505b60208210811415610fd357610fd2611068565b5b50919050565b6000610fe482610f5b565b9150610fef83610f5b565b925082610fff57610ffe611039565b5b828206905092915050565b7f4e487b7100000000000000000000000000000000000000000000000000000000600052601160045260246000fd5b7f4e487b7100000000000000000000000000000000000000000000000000000000600052601260045260246000fd5b7f4e487b7100000000000000000000000000000000000000000000000000000000600052602260045260246000fd5b7f4e487b7100000000000000000000000000000000000000000000000000000000600052604160045260246000fd5b6000601f19601f8301169050919050565b6110e081610f29565b81146110eb57600080fd5b5056fea264697066735822122091e38c9ea54589dbd35e06e1e61ec6113695f9fff84342786638658ec2a0be8964736f6c63430008000033",
  "linkReferences": {},
  "deployedLinkReferences": {}
}